:100000000C94E0000C9408010C9408010C94080175
:100010000C9408010C9408010C9408010C9408013C
:100020000C9408010C9408010C9408010C9408012C
:100030000C9408010C9408010C9408010C9408011C
:100040000C94AF130C9408010C9491160C94C316E5
:100050000C9408010C9408010C9408010C940801FC
:100060000C9408010C940801556E6B6E6F776E202E
:100070006572726F720041204D49464152452050D1
:1000800049434320726573706F6E646564207769BD
:100090007468204E414B2E00546865204352435FE4
:1000A0004120646F6573206E6F74206D61746368A6
:1000B0002E00496E76616C696420617267756D65AA
:1000C0006E742E00496E7465726E616C206572727A
:1000D0006F7220696E2074686520636F64652E20DE
:1000E00053686F756C64206E6F7420686170706502
:1000F0006E2E004120627566666572206973206EFF
:100100006F742062696720656E6F7567682E005492
:10011000696D656F757420696E20636F6D6D756EA6
:1001200069636174696F6E2E00436F6C6C697373E1
:10013000696F6E2064657465637465642E00457232
:10014000726F7220696E20636F6D6D756E69636189
:1001500074696F6E2E00537563636573732E0000B0
:100160000000080002010000030407000000000076
:100170000000000102040810204080010204081061
:1001800020010204081020040404040404040402EE
:100190000202020202030303030303000000002320
:1001A000002600290000000000250028002B000088
:1001B000000000240027002A00001207F3163B0766
:1001C00011241FBECFEFD8E0DEBFCDBF13E0A0E00B
:1001D000B1E0E6EEF9E302C005900D92AC3EB10746
:1001E000D9F725E0ACEEB3E001C01D92A23EB20704
:1001F000E1F711E0CEEBD1E004C02297FE010E94AE
:10020000F719CA3BD107C9F70E949D190C94E61C47
:100210000C940000862F0C94B90C8091F90388236C
:1002200049F0982F9F7E983041F0803249F080E06D
:1002300090E0089581E090E0089582E090E00895D4
:1002400083E090E00895CF92DF92EF92FF92CF93F8
:10025000DF936C01CAE0D1E066E488810E94ED146E
:10026000E12CF12CC701B6010E94281460E08881BE
:100270000E94ED14C701B601DF91CF91FF90EF907E
:10028000DF90CF900C942814EF92FF920F931F935E
:10029000CF93DF9326E040E052EC61E070E080E431
:1002A00095E00E942F1600E111E061E0F8018081E5
:1002B0000E94B414CEE0D1E061E088810E94B414C1
:1002C0008CE0E82E81E0F82E61E0F70180810E9449
:1002D000B41461E080910A010E94B41461E0F70156
:1002E00080810E94ED1488EC90E00E94230160E080
:1002F000F80180810E94ED148CE390E00E942301BC
:1003000061E0F80180810E94ED1460E088810E9424
:10031000ED1484EF91E00E94230161E088810E9446
:10032000ED140E943D078EEE93E0DF91CF911F9177
:100330000F91FF90EF900C944809CF93DF9361E009
:10034000809110010E94ED14CEE0D1E061E088813F
:100350000E94ED1461E080910C010E94ED1460E0B8
:1003600088810E94ED148CE390E00E9423018CE3CD
:1003700090E00E9423018CE390E00E9423018CE333
:1003800090E00E9423018CE390E00E9423016091A1
:1003900012017091130180E090E00E94281461E046
:1003A0008881DF91CF910C94ED142F923F924F9260
:1003B0005F926F927F928F929F92AF92BF92CF92F5
:1003C000DF92EF92FF920F931F93CF93DF93CDB7FE
:1003D000DEB7C350D1400FB6F894DEBF0FBECDBF1D
:1003E0006AEB73E0CE018A519F4F0E94991890905A
:1003F000EE0387E0E4E1F1E0DE01AD52BF4F019092
:100400000D928A95E1F75E0122E5A20EB11C8FE103
:10041000F50111928A95E9F781E0F501808388E181
:1004200084838AE0C351DF4F8883CD5ED040C451BE
:10043000DF4F1882CC5ED040C251DF4F1882198244
:100440001A82CE5ED04080E1C150DF4F8883CF5FFB
:10045000D040AE0141505F4FBE016D537F4F8CEED7
:1004600093E00E944010682F70E08CEE93E00E94B1
:100470006111882331F02FEEE22E23E0F22E870166
:100480002FC06BE271E0CDC06801F801808180313E
:1004900060F56BE471E0CE0101960E949918BE01EF
:1004A0006F5F7F4FCE018A519F4F0E946219CE012C
:1004B00001960E942B180F5F1F4F40E1F6016081EB
:1004C000CE0101960E940919BE016F5F7F4FCE01D8
:1004D0008A519F4F0E946219CE0101960E942B18EB
:1004E000802F8E19891580F203C06AEB73E0D3CF99
:1004F000CE018A519F4F0E947B1981E5C650DF4F84
:100500008883CA5FD0400BECF02EC550DF4FF882D5
:10051000CB5FD0409AE4D92EC450DF4FD882CC5F55
:10052000D040C950DF4F8883C75FD040C850DF4FED
:10053000F882C85FD040C750DF4FD882C95FD04033
:10054000AE0149505F4FBE0164517F4F8CEE93E086
:100550000E941311BC018CEE93E00E946111811185
:1005600003C06EE271E05DC012E1E12E8E010F5515
:100570001F4F9E012D523F4FAE0146505F4FBE01AF
:1005800064517F4F8CEE93E00E946711BC018CEEAA
:1005900093E00E946111811103C061E371E041C0E9
:1005A000CC55DF4F0881C45AD04010E062E070E0C3
:1005B000CE018A519F4F0E946919FC0180819927C1
:1005C00087FD90950817190751F5C655DF4F08812B
:1005D000CA5AD04010E065E070E0CE018A519F4FCA
:1005E0000E946919FC018081992787FD9095081761
:1005F0001907A9F4C255DF4F0881CE5AD04010E048
:1006000067E070E0CE018A519F4F0E946919FC019A
:100610008081992787FD90950817190781F161E678
:1006200071E081E295E00E94F1180E949D018EEE3A
:1006300093E00E94720CCE018A519F4F0E942B18AA
:100640000FB6F894DEBF0FBECDBFCD5FDE4F0FB645
:10065000F894DEBF0FBECDBFDF91CF911F910F91F8
:10066000FF90EF90DF90CF90BF90AF909F908F90D2
:100670007F906F905F904F903F902F90089588E209
:10068000CC52DF4F8883C45DD04088E1C952DF4F30
:100690008883C75DD04028E1E22E8E0107571F4FA7
:1006A0009E012D523F4FAE0146505F4FBE01645137
:1006B0007F4F8CEE93E00E946711BC018CEE93E0BB
:1006C0000E946111811103C064E371E0AACF80E44C
:1006D000CC52DF4F8883C45DD04086E0C952DF4FE3
:1006E0008883C75DD040B6E0EB2E8E0100521F4FCD
:1006F0009E012D523F4FAE0146505F4FBE016451E7
:100700007F4F8CEE93E00E946711BC018CEE93E06A
:100710000E946111811103C067E371E082CF89E417
:10072000CC52DF4F8883C45DD04082E0C952DF4F96
:100730008883C75DD040A2E0EA2E8E0103501F4F90
:100740009E012D523F4FAE0146505F4FBE01645196
:100750007F4F8CEE93E00E946711BC018CEE93E01A
:100760000E946111811103C06AE371E05ACF82E5F2
:10077000CC50DF4F8883C45FD040CB50DF4FF8822E
:10078000C55FD040CA50DF4FD882C65FD040CF503F
:10079000DF4F8883C15FD040CE50DF4FF882C25F09
:1007A000D040CD50DF4FD882C35FD040AE014F5014
:1007B0005F4FBE0164517F4F8CEE93E00E94131196
:1007C000BC018CEE93E00E946111811103C06DE3C6
:1007D00071E027CFCC52DF4F1882C45DD04088E152
:1007E000C952DF4F8883C75DD040F8E1EF2E8E01FC
:1007F0000F581F4F9E012D523F4FAE014C505F4F7F
:10080000BE0164517F4F8CEE93E00E946711BC01E2
:100810008CEE93E00E946111811103C060E471E0ED
:1008200000CFE2964FACE297512C612C712C762CC4
:10083000652C542C4424E3968FADE397480E511C4D
:10084000611C711C762C652C542C4424E4968FADCD
:10085000E497480E511C611C711C762C652C542C9D
:100860004424E5968FADE597480E511C611C711C20
:10087000E7966FADE797E6968FADE6970E9426184C
:100880008C010F5F1F4FE6961FAFE697E7960FAFFD
:10089000E797CE57DF4F6881C258D040CF57DF4F20
:1008A0008881C158D0400E9426184C01CD57DF4F97
:1008B000C880C358D040D12CE12CF12CFE2CED2C5B
:1008C000DC2CCC24CC57DF4F8881C458D040C80ED4
:1008D000D11CE11CF11CFE2CED2CDC2CCC24CB57C4
:1008E000DF4F8881C558D040C80ED11CE11CF11CD7
:1008F000FE2CED2CDC2CCC24CA57DF4F8881C65847
:10090000D040C80ED11CE11CF11CEA968FADEA97CD
:10091000F5018787EB968FADEB97808BEC968FADCB
:10092000EC97818BED968FADED97828B4AE050E08E
:1009300063E080E495E00E941918BE016A517F4F80
:1009400080E495E00E947417AE014F555F4F9A0105
:100950002E5E3F4FFA016191AF0180E495E0CE5FDA
:10096000DE4F2883C250D140CD5FDE4F3883C35065
:10097000D140C050DF4FE883C050D140CF5FDE4F41
:100980005883C150D1400E948417CE5FDE4F28812A
:10099000C250D140CD5FDE4F3881C350D140C050EE
:1009A000DF4F4881C050D140CF5FDE4F5881C150EA
:1009B000D1404217530771F6AE0147575F4F9A0176
:1009C000285E3F4FFA016191AF0180E495E0CE5F70
:1009D000DE4F2883C250D140CD5FDE4F3883C350F5
:1009E000D140C050DF4FE883C050D140CF5FDE4FD1
:1009F0005883C150D1400E948417CE5FDE4F2881BA
:100A0000C250D140CD5FDE4F3881C350D140C0507D
:100A1000DF4F4881C050D140CF5FDE4F5881C15079
:100A2000D1404217530771F6AE0140525F4F9A0111
:100A30002A5F3F4FFA016191AF0180E495E0CE5FFC
:100A4000DE4F2883C250D140CD5FDE4F3883C35084
:100A5000D140C050DF4FE883C050D140CF5FDE4F60
:100A60005883C150D1400E948417CE5FDE4F288149
:100A7000C250D140CD5FDE4F3881C350D140C0500D
:100A8000DF4F4881C050D140CF5FDE4F5881C15009
:100A9000D1404217530771F663E471E080E495E0BA
:100AA0000E9482174AE050E0B80180E495E00E947D
:100AB000201863E471E080E495E00E9482172AE048
:100AC00030E0B301A20180E495E00E940C1863E4D9
:100AD00071E080E495E00E9482174AE050E0B401A2
:100AE00080E495E00E94201863E471E080E495E0E2
:100AF0000E9482172AE030E0B701A60180E495E069
:100B00000E940C1863E471E080E495E00E94821773
:100B1000C350DF4F6881CD5FD04080E495E00E94F4
:100B20008417C250DF4F6881CE5FD04080E495E0EB
:100B30000E94841763E471E080E495E00E94A117AD
:100B400065E471E0CE0186529F4F0E949918C12C36
:100B5000D12C760180E495E00E944C1507970CF0AB
:100B6000BFC0F0E2CF16F1EADF06F7E0EF06F104CE
:100B700009F0B0C06DE471E0CE0101960E949918B1
:100B8000BE016F5F7F4FCE0186529F4F0E94E518D6
:100B9000CE0101960E942B18CE0186529F4F0E94D3
:100BA0008F196F3776498849910579F465E571E0C9
:100BB00081E295E00E94F1180E949D0165E571E0D7
:100BC00080E495E00E94A1177FC0CE0186529F4F1E
:100BD0000E948F19F62EC72ED82EE92E20E1EBE1C8
:100BE000F1E0DE01AD54BF4F01900D922A95E1F77F
:100BF000CE0101960E94011020E040E150E0BE01CC
:100C00006D547F4FCE0101960E942A0D9E012F5FE9
:100C10003F4F45E0BE0164517F4F8CEE93E00E9450
:100C2000AA11BC018CEE93E00E946111811113C0E6
:100C30006BE571E081E295E00E94F1180E949D0150
:100C40008EEE93E00E94720C68E571E080E495E01E
:100C50000E94A11735C0080D191DF501F286C18645
:100C6000D086E782138704870FE19501AE014C50CF
:100C70005F4FBE0164517F4F8CEE93E00E948B1159
:100C80006EE571E080E495E00E94A11760E080913C
:100C900010010E94ED1488EC90E00E94230160E2B4
:100CA00073E080E090E00E94281461E080911001E0
:100CB0000E94ED1468EC70E080E090E00E9428143F
:100CC000CE0101960E94160DCE0186529F4F0E94C2
:100CD0002B18B1CCFFEFCF1ADF0AEF0AFF0A3ACF89
:100CE00020E2C21621EAD20627E0E206F10409F466
:100CF00041CF97E0E92EF12C80E495E00E94651544
:100D000060ED680F4AE0CE0101960E940919BE010C
:100D10006F5F7F4FCE0186529F4F0E946219CE01B6
:100D200001960E942B1821E0E21AF10829F734CF2E
:100D30000E940D01039711F40C94D501089580E4ED
:100D400095E00E944C15892BC1F080E495E00E944B
:100D500065159093200580931F058337910521F039
:100D60008637910521F008956DE275E002C067E2D3
:100D700075E080E495E00C948F178EEE93E00E946E
:100D8000E80C81110FC061E0809110010E94ED1408
:100D900061E080910E010E94ED1461E080910C01F0
:100DA0000C94ED1464E671E080E495E00E94A117D4
:100DB00060E0809110010E94ED1460E080910E01CE
:100DC0000E94ED1460E080910C010E94ED148EEE03
:100DD00093E00E94070D882351F00E9498068EEE42
:100DE00093E00E94720C8EEE93E00C94B50C089583
:100DF0008BE791E09093ED038093EC0384E594E01E
:100E00000E94160D8CEF93E00E94160D81E295E092
:100E10000E942B1887E295E00E942B188DE295E046
:100E20000C942B1866E671E08DE295E00E9499180B
:100E300061E771E087E295E00E9499186AEB73E040
:100E400081E295E00E9499184AE069E08EEE93E015
:100E50000E940E088BE791E09093ED038093EC03E2
:100E60008CEF93E00E94011084E594E00E94011051
:100E700010921E0508950C94F806CF93CFB7F894FE
:100E800080913605811127C0E1E9F1E08491EDE719
:100E9000F1E09491E82FF0E0EE0FFF1FE155FE4FD7
:100EA000A591B4918C91892321F461E08AE00E949C
:100EB000ED1461E08AE00E94B4148CB580618CBDB1
:100EC0008CB580648CBD61E08DE00E94B41461E05B
:100ED0008BE00E94B414809136058F5F80933605B5
:100EE000CFBFCF91089520913505222399F03FB7C8
:100EF000F89420913505213059F42DB32093330512
:100F00004DB320913405209524232DBB3FBF02C053
:100F1000309333058CBD9DBD08958EBD00000DB48A
:100F200007FEFDCF8EB5089580913505882361F0C9
:100F30009FB7F8942091350580913305213019F43D
:100F40008DBB9FBF08958FBF08957F928F929F9210
:100F5000AF92BF92CF92DF92EF92FF920F931F93C7
:100F6000CF93DF936C01162F942EE9011E77106842
:100F700083E590E00E94730760E0F60184850E949B
:100F8000ED149A94812F0E948D077C2EEC2EFD2E5D
:100F9000AA24A394B12C8E2D8719891528F58111C7
:100FA0001AC00023C1F0802F812C883048F49501AD
:100FB000082E01C0220F0A94EAF7822A8F5FF5CF2C
:100FC000812F0E948D07982D90952881922388214A
:100FD000982B988305C0812F0E948D07F70180838D
:100FE000FFEFEF1AFF0AD7CFC90DD11D80E00E9495
:100FF0008D07888361E0F60184850E94ED14DF91FE
:10100000CF911F910F91FF90EF90DF90CF90BF9005
:10101000AF909F908F907F900C949407FC01648711
:1010200045870895EF92FF921F93CF93DF931F920E
:10103000CDB7DEB77C01162F83E590E049830E948F
:10104000730760E0F70184850E94ED14812F8E778D
:101050000E948D074981842F0E948D0761E0F7016E
:1010600084850E94ED140F90DF91CF911F91FF9026
:10107000EF900C949407CF92DF92EF92FF920F9330
:101080001F93CF93DF9300D0CDB7DEB78C01E62E50
:10109000F42E83E590E029833A830E94730760E091
:1010A000F80184850E94ED148E2D8E770E948D07A5
:1010B0002981E22EC22E3A81D32E8C2D8E198F15C6
:1010C00030F4F60181916F010E948D07F6CF61E047
:1010D000F80184850E94ED140F900F90DF91CF915D
:1010E0001F910F91FF90EF90DF90CF900C94940799
:1010F0001F93CF93DF93EC01162F83E590E00E94BE
:10110000730760E08C850E94ED14812F8E778068D4
:101110000E948D0780E00E948D07182F61E08C856A
:101120000E94ED140E949407812FDF91CF911F91AF
:1011300008950F9341110E94A5070F910895EF9212
:10114000FF921F93CF93DF931F92CDB7DEB77C0141
:10115000162F49830E9478084981482B612FC701C7
:101160000F90DF91CF911F91FF90EF900C94120898
:10117000EF92FF921F93CF93DF931F92CDB7DEB70D
:101180007C01162F49830E947808498140954823A5
:10119000612FC7010F90DF91CF911F91FF90EF90CA
:1011A0000C941208DF92EF92FF920F931F93CF934C
:1011B000DF93EC018B01D42E790140E062E00E94C4
:1011C000120844E06AE0CE010E94120840E864E19F
:1011D000CE010E949F0898014D2D62E1CE010E9430
:1011E0003B0843E062E0CE010E94120808E813E1E8
:1011F0006AE0CE010E94780882FD05C00150110905
:10120000B9F783E012C040E062E0CE010E9412080C
:1012100064E4CE010E947808F701808362E4CE0185
:101220000E947808F701818380E0DF91CF911F91C0
:101230000F91FF90EF90DF900895CF93DF93EC0133
:101240004FE062E00E94120862E370E080E090E00C
:101250000E94281462E0CE010E94780884FDFACF33
:10126000DF91CF910895CF93DF93EC0168E20E9464
:101270007808982F9370933041F0482F436068E2CC
:10128000CE01DF91CF910C941208DF91CF91089598
:10129000CF93DF93EC0161E08C850E94B41461E090
:1012A0008C850E94ED1461E08D850E94B4148D85BB
:1012B0000E942315892B59F461E08D850E94ED145D
:1012C00062E370E080E090E00E94281403C0CE0149
:1012D0000E941D0940E864E5CE010E94120849EA17
:1012E00066E5CE010E94120843E068E5CE010E9447
:1012F000120848EE6AE5CE010E94120840E46AE254
:10130000CE010E9412084DE362E2CE010E94120853
:10131000CE01DF91CF910C9433092F923F925F92CF
:101320006F927F928F929F92AF92BF92CF92DF92F5
:10133000EF92FF920F931F93CF93DF9300D000D0D3
:10134000CDB7DEB73C01962E542E302E082DA114B9
:10135000B10419F0F501408101C040E0242EF0E114
:101360000F9F200C112440E062E0C3012B833C83DB
:101370000E9412084FE768E0C3010E94120840E88B
:1013800064E1C3010E949F082B813C81432D62E1EF
:10139000C3010E943B08422D6AE1C3010E9412086A
:1013A000492D62E0C3010E9412088CE0981205C02A
:1013B00040E86AE1C3010E949F0890ED292E97E062
:1013C000392E68E0C3010E947808982F952139F4DE
:1013D00080FD62C0E1E02E1A310899F75DC06CE033
:1013E000C3010E947808982E837109F057C0E11458
:1013F000F104F1F0C114D104D9F064E1C3010E94F9
:101400007808482FF6018081841708F449C040838A
:10141000970162E1C3010E94990868E1C3010E943B
:101420007808182F1770A114B10411F0F50110837A
:1014300093FC38C0E114F104B9F1C114D104A1F155
:10144000888D882389F1F6014081413019F41430E8
:1014500019F420C0423010F487E027C01111FCCFEE
:1014600042509E012F5F3F4FB701C3010E94D20837
:1014700081111BC0F6018081E80EF11CF701329743
:10148000908189819813E8CF319690818A81981351
:10149000E3CF0AC08FEF09C083E007C081E005C039
:1014A00084E003C082E001C080E00F900F900F90B5
:1014B0000F90DF91CF911F910F91FF90EF90DF90F0
:1014C000CF90BF90AF909F908F907F906F905F90E4
:1014D0003F902F9008958F92AF92BF92CF92DF925C
:1014E000EF92FF920F931F93AF928C2C57016801DC
:1014F0007901042F9B0140E36CE00E948D090F905D
:101500001F910F91FF90EF90DF90CF90BF90AF9021
:101510008F9008954F925F926F927F928F929F92D9
:10152000AF92CF92EF92FF920F931F93CF93DF93DF
:1015300000D0CDB7DEB73C016A832A0149014115CD
:10154000510529F1F9018081823008F140E86CE110
:10155000C3010E94B80887E08983A12CC12CCE0169
:1015600001967C018401920141E0BE016E5F7F4FD4
:10157000C3010E946B0A81110DC0F4018081823089
:1015800041F481E09981911105C080E003C084E0BD
:1015900001C081E00F900F90DF91CF911F910F91CB
:1015A000FF90EF90CF90AF909F908F907F906F9033
:1015B0005F904F9008959A01AB0166E20C948A0AFD
:1015C0002F923F924F925F926F927F928F929F9253
:1015D000AF92BF92CF92DF92EF92FF920F931F9341
:1015E000CF93DF93CDB7DEB72D970FB6F894DEBF5C
:1015F0000FBECDBF3C012B01342E20E5241708F48B
:1016000009C140E86CE10E94B808BB24B39432E001
:10161000B31691F043E0B416E1F081E0B812FEC0D9
:1016200083E989833320D1F041E0D2018C91853068
:1016300008F440E0D12C17C085E98983332081F07C
:1016400041E0F2018081883008F440E073E0D72E59
:101650000AC087E9898366E0D62E04C0D12C02C077
:1016600053E0D52E40E0532DF8EFDF9E500D1124AE
:1016700057FD50E0442321F088E88B8373E001C0DC
:1016800072E091E0852F877009F490E0852F8595B1
:1016900085958595890F21F4442311F1585F20C069
:1016A000442311F063E001C064E0861708F4682F5A
:1016B00080E090E092012D0D311DE72FE80FA1E0B1
:1016C000B0E0AC0FBD1FAE0FB11DFD01D901A80FD9
:1016D000B91F1196AC91A0830196861770F3DCCFE9
:1016E00043E0242E5032FCF0B0E7BA838C819B811A
:1016F00089279D8189279E8189278F839E01285F65
:101700003F4F47E0BE016F5F7F4FC3015D870E947F
:10171000D2085D858111CDC01B862A86FE013796D1
:101720004F0179E01EC0952F97709B87252F259537
:101730002595259582E0820F392FF0E18F9F300D9E
:1017400011243A8371E0911101C070E0780F882470
:101750008394912C8C0E9D1E880E911C87E0821B19
:101760008A87CB844C2D4295407F4C0D6AE1C301A2
:101770005D877C870E941208A12C9E01255F3F4F48
:1017800079018E01065F1F4F94017C85472FBE01B2
:101790006F5F7F4FC3010E946B0A5D858230A1F5A8
:1017A0006CE1C3010E9478085D8585FD35C0482F36
:1017B0004F7109F440E2842F90E0252F332727FD55
:1017C00030952817390754F5542F019787709927BA
:1017D000242F2595259525952F5F31E0811101C096
:1017E00030E0230FE1E0F0E0EC0FFD1FE20FF11D10
:1017F000A1E0B0E002C0AA0FBB1F8A95E2F7CD01BD
:101800009081982B90836ECF811153C0503244F455
:1018100050E26ACF86E04DC082E04BC085E049C00F
:101820008B81883819F052E044E002C053E043E075
:1018300080E090E092012D0D311DF901E80FF91FB4
:10184000652F680FA1E0B0E0AC0FBD1FA60FB11D62
:101850006C9161830196841780F38A85833031F51A
:101860008B85811123C09E012D5F3F4F41E0B40164
:10187000C3010E94D20881111CC09B81F4018181A7
:10188000981316C09C818281981312C0808182FFB8
:1018900002C0B394BCCED2011B968C931B978B2DA8
:1018A000880F8B0D8F5F8C9380E003C081E001C0B7
:1018B00087E02D960FB6F894DEBF0FBECDBFDF9147
:1018C000CF911F910F91FF90EF90DF90CF90BF903D
:1018D000AF909F908F907F906F905F904F903F90D0
:1018E0002F9008958F929F92AF92CF92EF92FF9296
:1018F0000F931F93CF93DF9300D000D0CDB7DEB707
:101900004C0180E589831A829E012D5F3F4F42E0A2
:10191000BE016F5F7F4FC4010E94D208811116C0C3
:10192000A12CC12CE12CF12C00E010E020E030E0F3
:1019300044E0BE016F5F7F4FC4010E946B0A833099
:1019400021F0811103C081E001C080E00F900F9071
:101950000F900F90DF91CF911F910F91FF90EF901B
:10196000CF90AF909F908F90089548E060E10C94E5
:10197000B8088430D9F050F4813039F188F08230E1
:1019800091F08330F9F48FE091E008958630A1F072
:1019900080F08730A1F08F3FA9F486E790E00895AA
:1019A00086E591E0089589E291E0089583EF90E063
:1019B000089584EC90E0089582EB90E0089588E922
:1019C00090E0089588E690E008958EE391E0089510
:1019D000CF93DF9300D01F92CDB7DEB722E02B83E9
:1019E000AE014D5F5F4FBE016F5F7F4F0E94DB0A0C
:1019F000882331F091E0823009F090E0892F01C016
:101A000081E00F900F900F90DF91CF91089540E00B
:101A1000BC010E94E00A91E0811190E0892F0895B5
:101A20002BE833E0FC013183208308952BE833E079
:101A3000FC013183208308952BE833E0FC013183DE
:101A400020830C94AC192BE833E0FC013183208314
:101A50000C94AC190F931F93CF93DF931F92CDB7C4
:101A6000DEB78C0140315105FCF0DC01529680E17B
:101A7000FB0101900D928A95E1F7F80144A555A567
:101A800060E070E0C801029629830E94571C2981FA
:101A9000F80126A780E190E093A782A780E890E074
:101AA00090AB87A781E001C080E00F90DF91CF91DC
:101AB0001F910F910895282F332727FD3095220F6E
:101AC000232F221F330B2B71880F822708952F920B
:101AD0003F924F925F926F927F928F929F92AF92BE
:101AE000BF92CF92DF92EF92FF920F931F93CF930B
:101AF000DF93CDB7DEB72A970FB6F894DEBF0FBEDF
:101B0000CDBF9A8789878B01411111C036E8A32E7A
:101B100031E0B32E612C712C98012C5F3F4F3A833A
:101B20002983B801605F7F4F7C836B83F1C02DE711
:101B3000E22E21E0F22ECB010496D7013D917D01EA
:101B4000F8012585A22FB0E0A957BD4F2C915081F7
:101B50002527232720832685A22FB0E0A957BD4F34
:101B600021813C9123272183A785B0E0A957BD4F50
:101B700022813C9123272283A485B0E0A957BD4F41
:101B800023813C9123272383DC01980154E0F90150
:101B900071919F016C9167276D935F5F5031B9F729
:101BA000F7E8EF16F1E0FF0641F6E985FA85D8017E
:101BB00080E02D919081922791938F5F8031C9F7BA
:101BC000A5CF3197DF01149790812C9192279083B4
:101BD00081508330B1F7D8011D96EC911D97F0E04C
:101BE000E957FD4F80819C918927F50190818927D4
:101BF0008C931E96EC911E97F0E0E957FD4F1196DD
:101C00008C9111979081892711968C9311971F962B
:101C1000EC911F97F0E0E957FD4F12968C911297C7
:101C20009081892712968C9312971C96EC911C97A1
:101C3000F0E0E957FD4F13968C9113979081892717
:101C400013968C9361109CC0A985BA851D968C91C2
:101C50001D9719969C9119971D969C931D97159603
:101C60009C91159719969C93199711969C91119791
:101C700015969C93159711968C9311971A969C9193
:101C80001A971E968C911E9712962C9112971A965F
:101C90002C931A9716962C9116971E962C931E9796
:101CA00012969C93129716968C93169713968C9176
:101CB000139717969C91179713969C9313971B96BF
:101CC0009C911B9717969C9317971F969C911F9713
:101CD0001B969C931B971F968C931F97C801FD0121
:101CE00020E1DC015D91CD01A081B0E0A957BE4F9C
:101CF0003C91352731932150A1F7BFEF6B1A7B0A36
:101D0000E1E0AE1AB108FAE06F16710409F422C1DD
:101D1000442321F0EB81FC818FE053CFC801E9859A
:101D2000FA8520E0DC015D91CD0130815327A52F9C
:101D3000B0E0A957BD4F3C9131932F5F203191F70F
:101D4000E985FA8581819581918391859583958532
:101D500091878587928186812285228326852683A5
:101D600092878687878593859787978193879381C5
:101D700097838383862D662019F0893009F4A3C0E8
:101D800090E0E92EEE0CEE0CF12C442309F446C051
:101D900029843A842E0C3F1CF10130814701F2E086
:101DA0008F0E911C69857A85860E971ED4018C91C1
:101DB00083273E8348879F830E945B0D0E945B0DB3
:101DC000282F2701BFEF4B1A5B0AE985FA854E0ED3
:101DD0005F1E6701F3E0CF0ED11C69857A85C60EC0
:101DE000D71ED6015C91F201808185272D830E9448
:101DF0005B0D0E945B0D2D813E813227D1013C930A
:101E0000F201308138273083D4013C9132273C9352
:101E1000F6012081282720839F81488549845A84A0
:101E20004E0C5F1CD2013C904701BFEF8B1A9B0AFE
:101E300029853A85820E931ED4018C9183256701F2
:101E4000B2E0CB0ED11CC20ED31EE3E0EE0EF11CAD
:101E5000E20EF31ED7012C90F601208122262826BF
:101E600048879F830E945B0D222D23252827D201BE
:101E70002C93F4015080D6018C9185250E945B0D36
:101E8000222D25252827F4012083D6019C90F701D7
:101E9000808189250E945B0D222D29252827D601C6
:101EA0002C93F701D0808D2D83250E945B0D2D246E
:101EB0002826D7012C929F819F5F4885943009F096
:101EC00060CF4111C1CED8011D96EC911D97F0E075
:101ED000E957FD4F80819C918927F301E358FE4F1C
:101EE000908189278C931E96EC911E97F0E0E9571C
:101EF000FD4F11968C9111979081892711968C93A3
:101F000011971F96EC911F97F0E0E957FD4F12963D
:101F10008C9112979081892712968C9312971C9618
:101F2000EC911C97F0E0E957FD4F13968C911397B5
:101F30009081892713968C93B801E981FA8184E016
:101F4000DB012D91BD019081922791938F5F8031AC
:101F5000B9F7D3CE41110AC0F801A985BA8580E14D
:101F600021919C9192279D938150D1F72A960FB68B
:101F7000F894DEBF0FBECDBFDF91CF911F910F91BF
:101F8000FF90EF90DF90CF90BF90AF909F908F9099
:101F90007F906F905F904F903F902F900895CF93D8
:101FA000DF93CDB7DEB760970FB6F894DEBF0FBEF4
:101FB000CDBFFC01CB0162A573A560317105B9F4F9
:101FC00030E17296DE01119601900D923A95E1F79B
:101FD00030E1FA01DC0101900D923A95E1F7422FD0
:101FE000BE016F5F7F4F0E94670D81E001C080E0FE
:101FF00060960FB6F894DEBF0FBECDBFDF91CF91D4
:102000000895FC0113A612A616A68FEF90E090ABE0
:1020100087A787E993E09183808380E190E095A78B
:1020200084A708950F931F93CF93DF93EC018A0148
:1020300041155105F9F08C819D81AC01400F511F74
:102040002A813B812417350744F460E070E08FE972
:1020500093E00E944F1380E00EC028813981A801CF
:10206000820F931F0E944E1C8C819D81800F911FB7
:102070009D838C8381E0DF91CF911F910F91089513
:102080008F929F92AF92CF92EF92FF920F931F93F6
:10209000CF93DF93EB018A0120EE288320E529838B
:1020A00002964C019B012E5F3F4F42E00E94D208F6
:1020B000811114C0AA24A394C12CE12CF12C9E01FF
:1020C00044E0BE01C4010E946B0AC82F882329F096
:1020D000C4010E94720C8C2F01C080E0DF91CF916F
:1020E0001F910F91FF90EF90CF90AF909F908F90A6
:1020F00008954F925F926F927F928F929F92AF92CC
:10210000BF92CF92DF92EF92FF920F931F93CF93E4
:10211000DF93CDB7DEB7C154D1090FB6F894DEBF57
:102120000FBECDBF2C015B014701360180E4229632
:102130008FAF2297FB01F180F98280818A834B83E4
:102140002115310581F00115110569F0F8011081A3
:10215000112349F0412F50E0B901CE0104960E94AD
:102160004E1C1D5F01C013E0FAE0FF1202C08BE0BD
:1021700001C08AE0F5018183F2E04F0E511C21E09D
:1021800030E02C0F3D1F210F311D412FBE016F5F2D
:102190007F4FC2010E94D208811112C042E0410F5C
:1021A000A12CC12CE12CF12C8E010F5B1F4F9E0145
:1021B0002F5F3F4FB901C2010E946B0A882311F0C3
:1021C00090E019C00B818114910499F0611471049D
:1021D00081F022961FAD2297412F50E045505109C2
:1021E000BE016C5F7F4FC4010E944E1C1550F3016D
:1021F000108380E0902FCF5BDF4F0FB6F894DEBFE7
:102200000FBECDBFDF91CF911F910F91FF90EF9047
:10221000DF90CF90BF90AF909F908F907F906F9006
:102220005F904F9008958F929F92AF92BF92CF92FE
:10223000DF92EF92FF920F931F93CF93DF93CDB76F
:10224000DEB7C154D1090FB6F894DEBF0FBECDBFC3
:102250005B014A0123E022962FAF2297FA012081E9
:10226000298321812A8322812B839E012F5B3F4F6B
:102270006901FE0131967F0189019F014AE50E94B3
:10228000791081110AC0911108C0F40120813181B7
:102290004281F501228333834483CF5BDF4F0FB646
:1022A000F894DEBF0FBECDBFDF91CF911F910F918C
:1022B000FF90EF90DF90CF90BF90AF909F908F9066
:1022C0000895611102C081E0711180E00895CF92FC
:1022D000DF92EF92FF920F931F93CF93DF9300D083
:1022E000CDB7DEB747E04A83E982AE014F5F5F4F6B
:1022F0006A0178018E010E5F1F4F4DEB0E9479102D
:102300000F900F90DF91CF911F910F91FF90EF9061
:10231000DF90CF900895CF92DF92EF92FF920F93CC
:102320001F93CF93DF931F92CDB7DEB70983AE0122
:102330004F5F5F4F6A0179018A014DE30E94791076
:102340000F90DF91CF911F910F91FF90EF90DF9051
:10235000CF9008952F923F924F925F926F927F920B
:102360008F929F92AF92BF92CF92DF92EF92FF92A5
:102370000F931F93CF93DF93CDB7DEB7CF59D1091A
:102380000FB6F894DEBF0FBECDBFC456DF4F9983A2
:102390008883CC59D0402B015901C656DF4F488362
:1023A000CA59D04081E0C756DF4F8883C959D04011
:1023B00080E1C856DF4F8883C859D040CE01885687
:1023C0009F4F6C01DE01AF57BF4F7D018E01075655
:1023D0001F4F9E0126563F4F4AEAC456DF4F888161
:1023E0009981CC59D0400E9479101C01811103C001
:1023F000332009F433C1C856DF4FB881C859D040E3
:10240000C556DF4FB883CB59D0400B2F10E03501B4
:10241000E2E06E0E711CD5019C964D915C919D97EA
:1024200060E070E0C3010E94571CC12CD12CFE015A
:10243000EF57FF4F7F014E01F1E78F0E911CC256FF
:10244000DF4F8882CE59D040C156DF4F9882CF5996
:10245000D040D5019C966D917C919D97C8010E94BA
:10246000BF19C616D70684F4D501ED91FC910680FC
:10247000F781E02D21E030E0A701BE016F5F7F4FC3
:10248000C501099581115FC0A801C256DF4F68815F
:10249000CE59D040C156DF4F7881CF59D040CE01C0
:1024A0008F599F4F0E947213B801CE018F5A9F4FD0
:1024B0000E948D13FE01B196CF56DF4FF983E8835A
:1024C000C159D04080E290E0CD56DF4F9983888398
:1024D000C359D040CB56DF4F19821882C559D0401E
:1024E00020E2D22EDF018D2D1D928A95E9F7A801F9
:1024F000BE016F5A7F4FCE018F569F4F0E94121020
:10250000A801BE016F597F4FCE018F569F4F0E9489
:102510001210DE0111967D01FD011192DA94E9F7A6
:10252000C556DF4FF881CB59D0400F2F10E0000F78
:10253000111F0132110584F160E070E08FE993E032
:102540000E944F1329C0D5019C962D913C919D97D7
:10255000A301BE016F5F7F4FCB010E945E13F501A7
:1025600044A555A5B701C3010E944E1CD5019C96F8
:102570004D915C919D97BE016F5F7F4FC4010E949A
:102580004E1CF50184A595A5E80EF91E880E991E2E
:10259000FFEFCF1ADF0A5DCFCF56DF4F88809980DB
:1025A000C159D040C12CD12CF50124A535A5C801B5
:1025B000B9010E94BF19C616D7065CF5A301B40184
:1025C000CE018F5B9F4F0E945E13D501ED91FC9170
:1025D0000680F781E02D20E030E0AE014F5B5F4FD9
:1025E000B701C50109958823B9F1F50144A555A5A1
:1025F000B701C3010E944E1CD5019C968D919C9100
:102600009D97880E991EE80EF91EBFEFCB1ADB0AC4
:10261000CBCF80E2C956DF4F8883C759D040CE0167
:1026200088569F4F6C01DE01AF5BBF4F7D018E016D
:1026300009561F4F9E012F5F3F4F4FEAB201C4560C
:10264000DF4F88819981CC59D0400E9479101C01BC
:10265000811102C0332011F0C10102C080E090E07E
:10266000C156DF4F0FB6F894DEBF0FBECDBFDF916E
:10267000CF911F910F91FF90EF90DF90CF90BF907F
:10268000AF909F908F907F906F905F904F903F9012
:102690002F900895BC0180E495E00C948217CF93AD
:1026A000DF93EB010E944A13209729F0CE01DF91BE
:1026B000CF910C944A13DF91CF910895CF93DF937C
:1026C000FA01DB01AD01461B570B421753073CF4DF
:1026D0005D9141914527EC014993CE01F3CFDF9104
:1026E000CF910895EF92FF920F931F93CF93DF93B3
:1026F0007C018B01EA0121976F5F7F4FAE010E9441
:102700004E1CF8018081CE0DDF1D8883DF91CF91B3
:102710001F910F91FF90EF9008950F931F93CF9308
:10272000DF93EC018B010E94F913FE019F012C1B2A
:102730003D0B2017310774F461939B01AC016DE1EF
:1027400073EF81E090E00E94AF1969557E4B8F4F87
:102750009F4FECCFDF91CF911F910F9108951F9262
:102760000F920FB60F9211242F933F938F939F9345
:10277000AF93BF938091380590913905A0913A05A8
:10278000B0913B053091370523E0230F2D3720F41E
:102790000196A11DB11D05C026E8230F0296A11DBB
:1027A000B11D209337058093380590933905A09388
:1027B0003A05B0933B0580913C0590913D05A09171
:1027C0003E05B0913F050196A11DB11D80933C05CA
:1027D00090933D05A0933E05B0933F05BF91AF9107
:1027E0009F918F913F912F910F900FBE0F901F904F
:1027F00018952FB7F894609138057091390580913C
:102800003A0590913B052FBF08953FB7F89480910A
:102810003C0590913D05A0913E05B0913F0526B540
:10282000A89B05C02F3F19F00196A11DB11D3FBF08
:102830006627782F892F9A2F620F711D811D911D98
:1028400042E0660F771F881F991F4A95D1F70895B8
:10285000CF92DF92EF92FF92CF93DF936B017C01D7
:102860000E940514EB01C114D104E104F10489F0C4
:102870000E94AE190E9405146C1B7D0B683E7340CC
:1028800090F381E0C81AD108E108F108C851DC4F83
:10289000EACFDF91CF91FF90EF90DF90CF90089536
:1028A000789484B5826084BD84B5816084BD85B52B
:1028B000826085BD85B5816085BDEEE6F0E08081F2
:1028C00081608083E1E8F0E0108280818260808313
:1028D000808181608083E0E8F0E080818160808396
:1028E000E1EBF0E0808184608083E0EBF0E08081C8
:1028F00081608083EAE7F0E080818460808380816A
:102900008260808380818160808380818068808311
:102910001092C1000895833081F028F4813099F03D
:102920008230A1F008958730A9F08830B9F0843062
:10293000D1F4809180008F7D03C0809180008F77DB
:1029400080938000089584B58F7702C084B58F7D11
:1029500084BD08958091B0008F7703C08091B0004E
:102960008F7D8093B0000895CF93DF9390E0FC01BA
:10297000ED58FE4F2491FC01E957FE4F84918823C6
:1029800049F190E0880F991FFC01E155FE4FA59198
:10299000B4918B559E4FFC01C591D4919FB76111A5
:1029A00008C0F8948C91209582238C93888182238F
:1029B0000AC0623051F4F8948C91322F3095832301
:1029C0008C938881822B888304C0F8948C91822B0D
:1029D0008C939FBFDF91CF9108950F931F93CF9357
:1029E000DF931F92CDB7DEB7282F30E0F901E15A0F
:1029F000FE4F8491F901ED58FE4F1491F901E9570A
:102A0000FE4F04910023C9F0882321F069830E94BE
:102A10008B146981E02FF0E0EE0FFF1FEB55FE4FA6
:102A2000A591B4919FB7F8948C91611103C0109552
:102A3000812301C0812B8C939FBF0F90DF91CF9199
:102A40001F910F910895CF93DF93282F30E0F90164
:102A5000E15AFE4F8491F901ED58FE4FD491F901EE
:102A6000E957FE4FC491CC2391F081110E948B1441
:102A7000EC2FF0E0EE0FFF1FE556FE4FA591B4914D
:102A80002C912D2381E090E021F480E002C080E0D1
:102A900090E0DF91CF910895FC01818D228D90E02F
:102AA000805C9F4F821B91098F7399270895FC01C9
:102AB000918D828D981731F0828DE80FF11D858DF3
:102AC00090E008958FEF9FEF0895FC01918D828D26
:102AD000981761F0828DDF01A80FB11D5D968C9172
:102AE000928D9F5F9F73928F90E008958FEF9FEF7D
:102AF000089589EE96E1892B49F080E090E0892BDA
:102B000029F00E94E91681110C9400000895FC013F
:102B1000848DDF01A80FB11DA35ABF4F2C91848D66
:102B200090E001968F739927848FA689B7892C939B
:102B3000A089B1898C9180648C93938D848D981336
:102B400006C00288F389E02D80818F7D80830895FF
:102B5000CF93DF93EC01888D8823C9F0EA89FB8944
:102B6000808185FD05C0A889B9898C9186FD0FC03B
:102B70000FB607FCF5CF808185FFF2CFA889B98910
:102B80008C9185FFEDCFCE010E948715E7CFDF91B5
:102B9000CF910895CF92DF92FF920F931F93CF931F
:102BA000DF931F92CDB7DEB76C0181E0D601589656
:102BB0008C9358975B969C915B975C968C915C97F5
:102BC000981307C05096ED91FC915197808185FD37
:102BD0002EC0F601038D10E00F5F1F4F0F731127FA
:102BE000F02EF601848DF81211C00FB607FCF9CF54
:102BF000D6015096ED91FC915197808185FFF1CFE0
:102C0000C60169830E9487156981EBCF838DE80F28
:102C1000F11DE35AFF4F6083D6015B960C935B97DF
:102C20005296ED91FC915397808180620CC0D60141
:102C30005696ED91FC91579760835096ED91FC91DB
:102C4000519780818064808381E090E00F90DF91D4
:102C5000CF911F910F91FF90DF90CF900895BF9279
:102C6000CF92DF92EF92FF92CF93DF93EC016A0154
:102C70007B01B22EE889F98982E08083411581EEDB
:102C8000580761057105A1F060E079E08DE390E0FF
:102C9000A70196010E94D319215031094109510918
:102CA0005695479537952795211580E1380798F077
:102CB000E889F989108260E874E88EE190E0A70164
:102CC00096010E94D31921503109410951095695A5
:102CD000479537952795EC85FD853083EE85FF85F3
:102CE0002083188EEC89FD89B082EA89FB89808176
:102CF00080618083EA89FB89808188608083EA899A
:102D0000FB89808180688083EA89FB8980818F7D4F
:102D10008083DF91CF91FF90EF90DF90CF90BF90B5
:102D200008951F920F920FB60F9211242F938F9335
:102D30009F93EF93FF93E0915005F09151058081AF
:102D4000E0915605F091570582FD12C09081809167
:102D500059058F5F8F7320915A05821751F0E091CA
:102D60005905F0E0E05CFA4F958F8093590501C05A
:102D70008081FF91EF919F918F912F910F900FBEC6
:102D80000F901F9018951F920F920FB60F9211245B
:102D90002F933F934F935F936F937F938F939F9363
:102DA000AF93BF93EF93FF9380E495E00E94871564
:102DB000FF91EF91BF91AF919F918F917F916F9113
:102DC0005F914F913F912F910F900FBE0F901F90E9
:102DD000189580E495E00E944C1521E0892B09F4B8
:102DE00020E0822F0895109243051092420588EE4C
:102DF00093E0A0E0B0E08093440590934505A09354
:102E00004605B093470584ED93E090934105809388
:102E1000400585EC90E090934D0580934C0584EC43
:102E200090E090934F0580934E0580EC90E0909356
:102E300051058093500581EC90E090935305809369
:102E4000520582EC90E0909355058093540586ECF2
:102E500090E0909357058093560510925905109273
:102E60005A0510925B0510925C050895CF92DF928F
:102E7000EF92FF920F931F93CF93DF937C016A0130
:102E8000EB0100E010E00C151D0571F06991D70110
:102E9000ED91FC910190F081E02DC7010995892BFE
:102EA00019F00F5F1F4FEFCFC801DF91CF911F9136
:102EB0000F91FF90EF90DF90CF900895611571050D
:102EC00081F0DB010D900020E9F7AD01415051097F
:102ED000461B570BDC01ED91FC910280F381E02D44
:102EE000099480E090E00895DC01ED91FC91DB0114
:102EF00014964D915C9115976D917C910280F381B0
:102F0000E02D09940C945E17DC01ED91FC91019089
:102F1000F081E02D099468EB73E00C945E170F9339
:102F20001F93CF93DF93EC010E9474178C01CE01A5
:102F30000E948B17800F911FDF91CF911F910F91EE
:102F400008950F931F93CF93DF93EC010E945E17B8
:102F50008C01CE010E948B17800F911FDF91CF91C2
:102F60001F910F9108958F929F92AF92BF92CF922F
:102F7000DF92EF92FF920F931F93CF93DF93CDB722
:102F8000DEB7A1970FB6F894DEBF0FBECDBF7C01B0
:102F9000C42EE52FCB01D22E19A221E02D1510F061
:102FA0002AE0D22E8E010F5D1F4F8D2C912CA12C6B
:102FB000B12C6C2D7E2FA50194010E94D3198C2D6C
:102FC000D29E80191124015011098A3014F4805DB9
:102FD00001C0895CF8018083211531054105510547
:102FE00021F0C22EE32FCA01E4CFB801C7010E942D
:102FF0005E17A1960FB6F894DEBF0FBECDBFDF916E
:10300000CF911F910F91FF90EF90DF90CF90BF90E5
:10301000AF909F908F9008952115310541F4DC0108
:10302000ED91FC910190F081E02D642F09940C94B6
:10303000B3179A01462F50E060E070E00C940C1832
:103040009A01AB0160E070E00C940C1870E09B01F9
:10305000382BC9010895FC01808191810C94C11A1B
:10306000CF93DF93EC0188819981009711F00E9442
:10307000C11A198218821D821C821B821A82DF915A
:10308000CF9108950F931F93CF93DF93EC018B01A2
:103090006F5F7F4F888199810E94501B009731F0AC
:1030A000998388831B830A8381E001C080E0DF91DC
:1030B000CF911F910F910895CF93DF93EC018881F9
:1030C0009981892B29F08A819B818617970760F463
:1030D000CE010E944218882341F08C819D81892B6A
:1030E00019F4E881F981108281E0DF91CF91089590
:1030F000EF92FF920F931F93CF93DF93EC017B012D
:103100008A01BA010E945C18811104C0CE010E949C
:10311000301807C01D830C83B701888199810E94F4
:103120005E1CCE01DF91CF911F910F91FF90EF9028
:103130000895FC011182108213821282158214827A
:103140006115710559F0FB0101900020E9F7AF010D
:1031500041505109461B570B0C94781808950F9352
:103160001F93CF93DF938C01EB01FC018081918150
:10317000009799F0428153812C813D81421753077A
:1031800050F0688179810E945E1C8C819D81F801DC
:103190009583848313C00E94C11A88819981F801A4
:1031A000918380838A819B81938382838C819D819B
:1031B00095838483198218821B821A821D821C8245
:1031C000DF91CF911F910F910895CF93DF93EC0181
:1031D0008617970711F00E94AF18CE01DF91CF91AB
:1031E0000895CF93DF93EC016115710561F0FB0148
:1031F00001900020E9F7AF0141505109461B570BE0
:103200000E94781802C00E943018CE01DF91CF9141
:1032100008950F931F93CF93DF93CDB7DEB7299710
:103220000FB6F894DEBF0FBECDBF8C01862FF8011C
:1032300011821082138212821582148250E0BE0124
:103240006F5F7F4F90E00E947A1CBE016F5F7F4FDF
:10325000C8010E94F11829960FB6F894DEBF0FBE80
:10326000CDBFDF91CF911F910F910895EF92FF9203
:103270000F931F93CF93DF93EC017B010C811D8192
:103280006115710511F480E016C04115510591F0EA
:10329000040F151FB8010E945C188823A1F3288130
:1032A00039818C819D81B701820F931F0E945E1C22
:1032B0001D830C8381E0DF91CF911F910F91FF90CF
:1032C000EF900895FB0144815581608171810C94D8
:1032D0003619FC01848195816817790720F4808173
:1032E0009181009729F41092DD058DED95E0089508
:1032F000860F971F0895CF93DF93FC01C081D18182
:10330000209751F08881882339F0992787FD90957F
:103310000E94461C8993F6CFDF91CF910895FC015E
:1033200080819181009711F00C941F1C60E070E087
:10333000CB0108950E941A1C08950E9450140E9407
:103340009C190E944401C9E7D5E10E949F0620977D
:10335000E1F30E947915F9CF0C94C11A0895DB01AD
:103360008F939F930E94FB19BF91AF91A29F800DF5
:10337000911DA39F900DB29F900D1124089597FB6E
:10338000072E16F4009407D077FD09D00E94061A84
:1033900007FC05D03EF4909581959F4F0895709558
:1033A00061957F4F0895A1E21A2EAA1BBB1BFD0158
:1033B0000DC0AA1FBB1FEE1FFF1FA217B307E40714
:1033C000F50720F0A21BB30BE40BF50B661F771F6C
:1033D000881F991F1A9469F760957095809590954C
:1033E0009B01AC01BD01CF010895EE0FFF1F0590B9
:1033F000F491E02D09940E941A1AA59F900DB49F94
:10340000900DA49F800D911D11240895AA1BBB1B34
:1034100051E107C0AA1FBB1FA617B70710F0A61BD4
:10342000B70B881F991F5A95A9F780959095BC01F5
:10343000CD010895A29FB001B39FC001A39F700D5D
:10344000811D1124911DB29F700D811D1124911DAC
:103450000895CF93DF938230910510F482E090E0DD
:10346000E091E005F091E10520E030E0A0E0B0E07F
:10347000309739F14081518148175907B8F0481702
:10348000590771F482819381109729F013969C93C8
:103490008E9312972CC09093E1058093E00527C08E
:1034A0002115310531F04217530718F0A901DB014E
:1034B00001C0EF019A01BD01DF010280F381E02D1F
:1034C000D7CF21153105F9F0281B390B24303105F0
:1034D00080F48A819B816115710521F0FB01938342
:1034E000828304C09093E1058093E005FE0132964B
:1034F00044C0FE01E20FF31F8193919322503109E2
:10350000398328833AC02091DE053091DF05232BD3
:1035100041F420910201309103013093DF052093A3
:10352000DE0520910001309101012115310541F4A2
:103530002DB73EB74091040150910501241B350B76
:10354000E091DE05F091DF05E217F307A0F42E1BF2
:103550003F0B2817390778F0AC014E5F5F4F2417F7
:10356000350748F04E0F5F1F5093DF054093DE058F
:103570008193919302C0E0E0F0E0CF01DF91CF9121
:103580000895CF93DF93009709F487C0FC01329729
:1035900013821282C091E005D091E105209781F459
:1035A00020813181280F391F8091DE059091DF0540
:1035B0008217930779F5F093DF05E093DE056DC080
:1035C000DE0120E030E0AE17BF0750F412964D91B7
:1035D0005C9113979D014115510509F1DA01F3CF73
:1035E000B383A28340815181840F951F8A179B0763
:1035F00071F48D919C911197840F951F0296918380
:10360000808312968D919C911397938382832115C9
:10361000310529F4F093E105E093E0053EC0D901BE
:103620001396FC93EE9312974D915D91A40FB51FE5
:10363000EA17FB0779F480819181840F951F029628
:10364000D90111969C938E938281938113969C93BA
:103650008E931297E0E0F0E08A819B81009719F049
:10366000FE01EC01F9CFCE01029628813981820F4B
:10367000931F2091DE053091DF052817390769F483
:10368000309729F41092E1051092E00502C01382F0
:103690001282D093DF05C093DE05DF91CF910895AC
:1036A000A0E0B0E0E6E5FBE10C94B31CEC01CB013B
:1036B000209719F40E94291AB8C0FE01E60FF71FDF
:1036C0009E0122503109E217F30708F4ACC0D9017A
:1036D0000D911C91119706171707B8F005301105C9
:1036E00008F49FC0A801445051094617570708F431
:1036F00098C002501109061B170B019311936D938B
:103700007C93CF010E94C11A8CC05B01A01AB10A40
:103710004E01800E911EA091E005B091E105612C53
:10372000712C60E070E0109709F449C0A815B90544
:10373000C9F5ED90FC901197670142E0C40ED11CD1
:10374000CA14DB0478F147018A189B08640142E03F
:10375000C40ED11C1296BC9012971396AC91B5E092
:10376000CB16D10440F0B282A38391828082D9012A
:103770008D939C9309C00E5F1F4F0E0D1F1DF90105
:1037800011830083EB2DFA2F6115710531F0DB01F8
:103790001396FC93EE93129744C0F093E105E093E7
:1037A000E0053FC06D917C9111976616770608F48D
:1037B0003B01BD0112960D90BC91A02DB4CF60913C
:1037C000DE057091DF0568157905E9F4681679065C
:1037D000D0F440910001509101014115510541F48F
:1037E0004DB75EB76091040170910501461B570B00
:1037F000E417F507C0F4F093DF05E093DE05F90167
:10380000918380830EC00E94291A7C01009759F091
:10381000A801BE010E944E1CCE010E94C11AC70120
:1038200004C0CE0102C080E090E0CDB7DEB7EEE08C
:103830000C94CF1C81E090E0F8940C94E61C1F934C
:10384000FC0199278827BC01E89411911032E9F313
:10385000193010F01E30C8F31B3251F01D3249F4FC
:10386000689406C00E94651C610F711D811D911D29
:10387000119110531A30B0F33EF4909580957095E5
:1038800061957F4F8F4F9F4F1F910895911108951C
:1038900081568A5108F4805285580895FB01DC0155
:1038A00002C001900D9241505040D8F70895DC01BC
:1038B00001C06D9341505040E0F70895FB01DC01D9
:1038C00001900D920020E1F70895592F482F372FCE
:1038D000262F660F771F881F991F660F771F881F77
:1038E000991F620F731F841F951F660F771F881F14
:1038F000991F08954532510520F4423010F00C9480
:10390000851CFB011082CB010895BB27FB015527C5
:10391000AA27880F991FAA1FA41710F0A41B83952C
:103920005051B9F7A05DAA3308F0A95DA1930097A3
:1039300079F7B111B1931192CB010C949F1CDC016A
:10394000FC01672F71917723E1F7329704C07C91D6
:103950006D9370836291AE17BF07C8F308952F92DD
:103960003F924F925F926F927F928F929F92AF920F
:10397000BF92CF92DF92EF92FF920F931F93CF935C
:10398000DF93CDB7DEB7CA1BDB0B0FB6F894DEBFF3
:103990000FBECDBF09942A88398848885F846E8419
:1039A0007D848C849B84AA84B984C884DF80EE8063
:1039B000FD800C811B81AA81B981CE0FD11D0FB66C
:1039C000F894DEBF0FBECDBFED01089511E0CEEB40
:1039D000D1E004C0FE010E94F7192296C03CD10735
:0639E000C9F7F894FFCFC7
:1039E6000000E20580000100000003000600070059
:1039F6000500010001000000120000A5A4A1A9A96C
:103A0600A2CBAB782980588897CB8F3031003032E3
:103A160000303300303500303600303700303800A3
:103A26003039002A00303030303030300039393902
:103A360039393939004E4F004E4F2D3131004F4B39
:103A4600003034002E004978303131373034353487
:103A56000076302E313000000000000A0101020419
:103A660008102040801B3652096AD53036A538BF6B
:103A760040A39E81F3D7FB7CE339829B2FFF8734DB
:103A86008E4344C4DEE9CB547B9432A6C2233DEE7A
:103A96004C950B42FAC34E082EA16628D924B2765D
:103AA6005BA2496D8BD12572F8F66486689816D4A8
:103AB600A45CCC5D65B6926C704850FDEDB9DA5EDB
:103AC600154657A78D9D8490D8AB008CBCD30AF7BA
:103AD600E45805B8B34506D02C1E8FCA3F0F02C165
:103AE600AFBD0301138A6B3A9111414F67DCEA9728
:103AF600F2CFCEF0B4E67396AC7422E7AD3585E22C
:103B0600F937E81C75DF6E47F11A711D29C5896FF3
:103B1600B7620EAA18BE1BFC563E4BC6D279209A37
:103B2600DBC0FE78CD5AF41FDDA8338807C731B154
:103B36001210592780EC5F60517FA919B54A0D2DE7
:103B4600E57A9F93C99CEFA0E03B4DAE2AF5B0C83D
:103B5600EBBB3C83539961172B047EBA77D626E1DB
:103B660069146355210C7D637C777BF26B6FC530DE
:103B760001672BFED7AB76CA82C97DFA5947F0ADED
:103B8600D4A2AF9CA472C0B7FD9326363FF7CC34BF
:103B9600A5E5F171D8311504C723C31896059A0710
:103BA6001280E2EB27B27509832C1A1B6E5AA052BB
:103BB6003BD6B329E32F8453D100ED20FCB15B6AD9
:103BC600CBBE394A4C58CFD0EFAAFB434D3385457F
:103BD600F9027F503C9FA851A3408F929D38F5BCB7
:103BE600B6DA2110FFF3D2CD0C13EC5F974417C45D
:103BF600A77E3D645D197360814FDC222A9088465A
:103C0600EEB814DE5E0BDBE0323A0A4906245CC2EB
:103C1600D3AC629195E479E7C8376D8DD54EA96C22
:103C260056F4EA657AAE08BA78252E1CA6B4C6E81C
:103C3600DD741F4BBD8B8A703EB5664803F60E6178
:103C46003557B986C11D9EE1F8981169D98E949BA6
:103C56001E87E9CE5528DF8CA1890DBFE642684153
:103C6600992D0FB054BB1600000000100D1C0D9AC4
:103C7600199A1900000000160D230D2A0DCF0F23E7
:103C86002323205478427566666572204F766572E6
:103C9600666C6F77202323230D0A006572726F729C
:103CA6006F6274656E657276616C6F7265733200F1
:103CB60000000000CA1536174C1565155715A815CE
:0C3CC6006E616E00696E66006F7666002D
:00000001FF
